:020000040800F2
:10000000002800201D130008AD120008B3120008DC
:10001000B9120008BF120008C51200080000000055
:10002000000000000000000000000000CB120008EB
:10003000D712000800000000E3120008EF120008C9
:1000400065130008651300086513000865130008B0
:1000500065130008651300086513000865130008A0
:100060006513000865130008651300086513000890
:100070006513000865130008651300086513000880
:100080006513000865130008651300086513000870
:100090006513000865130008651300086513000860
:1000A0006513000865130008651300086513000850
:1000B000FD12000865130008000000006513000829
:1000C0006513000800000000000000006513000830
:1000D0000000000065130008651300080000000020
:1000E0006513000865130008651300080000000090
:1000F0000000000000000000000000000000000000
:0C01000000000000000000005FF808F1A3
:10010C0010B5054C237833B9044B13B10448AFF345
:10011C0000800123237010BD30000020000000007F
:10012C009429000808B5034B1BB103490348AFF3EE
:10013C00008008BD00000000340000209429000855
:10014C0080B582B000AF00237B607AE0414A7B68C7
:10015C0052F8232040497B6841F823203F4A7B68B2
:10016C0052F823203B497B6841F823203C4A7B68AA
:10017C0052F823203B497B6831F81330194610465E
:10018C0001F0D6FB03461946344A7B6842F823102B
:10019C00314A7B6852F823202E497B6851F8233072
:1001AC009A424BD12B4A7B6852F823202B497B680F
:1001BC0051F823309A4241D12B4A7B6852F82320C4
:1001CC0025497B6851F823309A4218D0224A7B6823
:1001DC0052F8232024497B6841F823201E4A7B686F
:1001EC0052F82330002B29D1204A7B68012142F898
:1001FC0023101F4A7B68C82142F823101EE01C4ABA
:10020C007B6852F823305A1E19497B6841F8232029
:10021C00174A7B6852F82330002B0FDC0E4A7B68A0
:10022C0052F82330002B04D1104A7B68012142F88C
:10023C0023100F4A7B68C82142F823107B680133D6
:10024C007B607B68022B81DD00BF00BF0837BD4699
:10025C0080BD00BFAC000020B8000020940000203E
:10026C00000000200C000020A00000204C0000200A
:10027C001400002080B483B000AF7860094A7B681A
:10028C0052F82330012B06D1064A7B68002142F834
:10029C002310012300E0002318460C37BD4680BC18
:1002AC00704700BF4C00002080B500AF00F048FC48
:1002BC000020FFF7DFFF0346002B2DD001224FF467
:1002CC008061164801F04BFB01224FF4005113489A
:1002DC0001F045FB01224FF40061104801F03FFB97
:1002EC0001224FF480410D4801F039FB01224FF4FB
:1002FC0080510A4801F033FB01224FF400410748BA
:10030C0001F02DFB064B33221A600A2000F0B6FEDA
:10031C00044B4FF47A721A6000BF80BD0008014094
:10032C00580000206400002080B500AFBF4B1B6854
:10033C00013B282B00F2BA8101A252F823F000BF36
:10034C00F1030008B9060008B9060008B906000850
:10035C00B9060008B9060008B9060008B906000875
:10036C00B9060008B9060008150400088304000843
:10037C00F1040008B9060008B9060008B90600081F
:10038C00B9060008B9060008B9060008B906000845
:10039C00CD050008B9060008B9060008B906000822
:1003AC00B9060008B9060008B9060008B906000825
:1003BC00B9060008B90600084D060008B906000881
:1003CC00B9060008B9060008B9060008B906000805
:1003DC00B9060008B9060008B9060008B9060008F5
:1003EC005F050008914B0B221A604FF4FA6000F085
:1003FC0045FE00F079FE8E4B42F6F8221A608D4BCA
:10040C004FF4FA621A605EE100224FF480618A4870
:10041C0001F0A5FA00224FF40051874801F09FFA31
:10042C0001224FF40061844801F099FA01224FF443
:10043C008041814801F093FA01224FF480517E48AB
:10044C0001F08DFA01224FF400417B4801F087FA4C
:10045C00FFF72AFF794B1B68012B40F02981734B66
:10046C000C221A6041F2883000F008FE714B41F208
:10047C0088321A601CE100224FF480616E4801F052
:10048C006EFA01224FF400516B4801F068FA012218
:10049C004FF40061684801F062FA01224FF4804188
:1004AC00654801F05CFA01224FF48051624801F07A
:1004BC0056FA00224FF400415F4801F050FAFFF762
:1004CC00F3FE5E4B1B68012B40F0F480574B0D2262
:1004DC001A604FF4FA6000F0D1FD564B4FF4FA62FB
:1004EC001A60E7E000224FF48061534801F037FABC
:1004FC0001224FF40051504801F031FA01224FF41F
:10050C0000614D4801F02BFA00224FF480414A481B
:10051C0001F025FA01224FF48051474801F01FFAEF
:10052C0001224FF40041444801F019FAFFF7BCFED8
:10053C00424B1B68012B40F0BF803C4B29221A60B8
:10054C004FF4FA6000F09AFD3A4B42F6F8221A602A
:10055C00B2E000224FF48061374801F000FA00222B
:10056C004FF40051344801F0FAF901224FF40061C4
:10057C00314801F0F4F901224FF480412E4801F08A
:10058C00EEF901224FF480512B4801F0E8F90122D9
:10059C004FF40041284801F0E2F9FFF785FE274BA4
:1005AC001B68012B40F08A80204B15221A6041F207
:1005BC00883000F063FD1E4B41F288321A607DE0FA
:1005CC0001224FF480611C4801F0C9F900224FF45C
:1005DC000051194801F0C3F901224FF4006116488B
:1005EC0001F0BDF901224FF48041134801F0B7F935
:1005FC0000224FF48051104801F0B1F901224FF460
:10060C0000410D4801F0ABF9FFF74EFE0B4B1B6898
:10061C00012B55D1054B1F221A604FF4FA6000F0E4
:10062C002DFD034B4FF4FA621A6049E0580000208C
:10063C005C00002060000020000801407C000020CD
:10064C0001224FF48061214801F089F900224FF416
:10065C0000511E4801F083F900224FF400611B4841
:10066C0001F07DF901224FF48041184801F077F92F
:10067C0001224FF48051154801F071F901224FF419
:10068C000041124801F06BF9FFF70EFE104B1B688E
:10069C00012B17D10F4B0B221A604FF4FA6000F0AC
:1006AC00EDFC0D4B42F6F8221A600BE000BF0AE09D
:1006BC0000BF08E000BF06E000BF04E000BF02E09E
:1006CC0000BF00E000BF00BF80BD00BF00080140BC
:1006DC007C000020580000205C00002080B500AF9A
:1006EC0000F096FA0120FFF7C5FD0346002B0ED053
:1006FC000F4B1B680F4A934209DC0F4B1B68012BF5
:10070C0005D10B4B1B6803F57A73094A1360022061
:10071C00FFF7B0FD0346002B08D0074B1B68012BDD
:10072C0004D1054B00221A6000F016FD00BF80BDFD
:10073C0064000020B88201002000002080B500AFCA
:10074C00754B1B68472B00F09780472B00F3DB8021
:10075C00332B02D03D2B48D0D5E0704B1B68012BBE
:10076C0025D14FF480616E4801F011F94FF400511E
:10077C006B4801F00CF901224FF40061684801F05C
:10078C00EEF801224FF48041654801F0E8F80122AF
:10079C004FF48051624801F0E2F801224FF400411D
:1007AC005F4801F0DCF84FF4FA7000F067FCFFF7DB
:1007BC0095FF0020FFF75EFD0346002B02D0564B41
:1007CC003D221A60574B1B68012B40F09E80554B05
:1007DC0000221A60544B01221A60544B4FF47A7267
:1007EC001A604D4B3D221A608FE04C4B1B68012B5D
:1007FC0025D101224FF48061494801F0B0F8012263
:10080C004FF40051464801F0AAF84FF400614448F7
:10081C0001F0BDF84FF48041414801F0B8F80122D5
:10082C004FF480513E4801F09AF801224FF40041F8
:10083C003B4801F094F84FF4FA7000F01FFCFFF7FE
:10084C004DFF0020FFF716FD0346002B02D0324B64
:10085C0047221A60334B1B68012B58D1314B0022B5
:10086C001A60314B01221A60304B4FF47A721A60C5
:10087C00294B47221A604AE0284B1B68012B25D1D3
:10088C0001224FF48061264801F069F801224FF4EF
:10089C000051234801F063F801224FF40061204815
:1008AC0001F05DF801224FF480411D4801F057F82A
:1008BC004FF480511A4801F06AF84FF4004118487F
:1008CC0001F065F84FF4FA7000F0D8FBFFF706FF63
:1008DC000020FFF7CFFC0346002B02D00E4B012269
:1008EC001A60104B1B68012B13D10E4B00221A609F
:1008FC000D4B01221A600D4B4FF47A721A60064BA5
:10090C0001221A6005E000BF04E000BF02E000BF56
:10091C0000E000BF00BF80BD580000207C0000201C
:10092C00000801408C000020200000206400002002
:10093C0080B500AF00F012FD00F014F800F09AF84A
:10094C0000F04CF8054801F067FC054B01221A60D9
:10095C00FFF7EAFCFFF7F2FEFAE700BFC400002045
:10096C005800002080B590B000AF07F11803282282
:10097C000021184602F000F83B1D00221A605A6054
:10098C009A60DA601A610223BB610123BB621023F7
:10099C00FB6200237B6307F11803184601F010F883
:1009AC000346002B01D000F0C5F80F237B60002319
:1009BC00BB600023FB6000233B6100237B613B1D7C
:1009CC000021184601F07CFA0346002B01D000F000
:1009DC00B1F800BF4037BD4680BD000080B586B081
:1009EC0000AF07F1080300221A605A609A60DA60BF
:1009FC003B4600221A605A601D4B4FF080421A6031
:100A0C001B4B41F63F725A60194B00229A60184BEF
:100A1C000922DA60164B00221A61154B00229A61EA
:100A2C00134801F0A9FB0346002B01D000F082F81B
:100A3C004FF48053BB6007F1080319460C4801F0D2
:100A4C0027FD0346002B01D000F074F800233B6017
:100A5C0000237B603B461946054801F0FFFE034628
:100A6C00002B01D000F066F800BF1837BD4680BDE2
:100A7C00C400002080B586B000AF07F10803002247
:100A8C001A605A609A60DA60274B9B69264A43F0D9
:100A9C0004039361244B9B6903F004037B607B6824
:100AAC00214B9B69204A43F0080393611E4B9B69C1
:100ABC0003F008033B603B6800224FF6C0711B48F3
:100ACC0000F04DFF00227F21194800F048FF382329
:100ADC00BB600023FB6001233B6107F1080319464F
:100AEC00124800F0ABFD4FF6C073BB600123FB60F6
:100AFC0000233B6102237B6107F1080319460B4875
:100B0C0000F09CFD7F23BB600123FB6000233B6155
:100B1C0002237B6107F108031946054800F08EFD9E
:100B2C0000BF1837BD4680BD0010024000080140D0
:100B3C00000C014080B400AF72B600BFFEE70000AD
:100B4C0080B500AF2A4B1B68012B4ED1294B1B687B
:100B5C00294A82FB03121213DB17D31A274A13609C
:100B6C00244B1B68264A82FB03129211DB17D11A05
:100B7C00244B83FB01239A10CB17D21A13469B00EC
:100B8C0013445B00CA1A1D4B5A601F4B1B681A4A50
:100B9C0082FB03121213DB17D31A184A93601A4BF9
:100BAC001B68174A82FB03129211DB17D11A154BE3
:100BBC0083FB01239A10CB17D21A13469B001344C4
:100BCC005B00CA1A0D4BDA60104B1B68032B02DD5D
:100BDC000E4B00221A600D4B1B685A1C0B490A6005
:100BEC00184600F077F800F07FFA00BF80BD00BF18
:100BFC00840000205C000020AD8BDB6868000020C6
:100C0C00D34D621067666666600000207800002095
:100C1C0080B500AF274B1B68012B48D1264B1B68B6
:100C2C00264A82FB03129210DB17D31A244A136054
:100C3C00214B1968214B83FB01239A10CB17D21A35
:100C4C0013469B0013445B00CA1A1D4B5A601D4B84
:100C5C001B681D4A82FB03121213DB17D31A184AA6
:100C6C009360184B1B68194A82FB03129211DB1715
:100C7C00D11A124B83FB01239A10CB17D21A1346AD
:100C8C009B0013445B00CA1A0D4BDA60104B1B68B7
:100C9C00032B02DD0E4B00221A600D4B1B685A1CF5
:100CAC000B490A60184600F015F800F01DFA00BF59
:100CBC0080BD00BF84000020580000206766666677
:100CCC006800002064000020AD8BDB68D34D6210FF
:100CDC007800002080B582B000AF78607B68032B71
:100CEC007AD801A252F823F0050D00083D0D00083A
:100CFC00750D0008AD0D000800224021394800F0A8
:100D0C002EFE01228021374800F029FE01224FF4EB
:100D1C008071344800F023FE01224FF400713148F9
:100D2C0000F01DFE304B1B68184600F05FF854E0D5
:100D3C00012240212B4800F012FE0022802129487C
:100D4C0000F00DFE01224FF48071264800F007FEE2
:100D5C0001224FF40071234800F001FE224B5B6826
:100D6C00184600F043F838E0012240211D4800F0FD
:100D7C00F6FD012280211B4800F0F1FD00224FF40A
:100D8C008071184800F0EBFD01224FF400711548FA
:100D9C0000F0E5FD144B9B68184600F027F81CE0AA
:100DAC00012240210F4800F0DAFD012280210D487C
:100DBC0000F0D5FD01224FF480710A4800F0CFFD00
:100DCC0000224FF40071074800F0C9FD064BDB68A8
:100DDC00184600F00BF800E000BF00BF0837BD4616
:100DEC0080BD00BF000801406800002080B582B0C3
:100DFC0000AF7860012201219F4800F0B0FD012274
:100E0C0002219D4800F0ABFD012204219A4800F01C
:100E1C00A6FD01220821984800F0A1FD0122102115
:100E2C00954800F09CFD01222021934800F097FD8D
:100E3C0001224021904800F092FD7B68092B00F2C2
:100E4C00168101A252F823F07D0E0008BB0E00089B
:100E5C00D10E0008050F0008390F0008630F0008B9
:100E6C00970F0008D50F0008F50F00083D1000087B
:100E7C0000220121804800F072FD002202217E48F0
:100E8C0000F06DFD002204217B4800F068FD00227B
:100E9C000821794800F063FD00221021764800F00B
:100EAC005EFD00222021744800F059FDE0E0002294
:100EBC000221714800F053FD002204216E4800F01D
:100ECC004EFDD5E0002201216B4800F048FD0022C8
:100EDC000221694800F043FD00220821664800F019
:100EEC003EFD00221021644800F039FD0022402113
:100EFC00614800F034FDBBE0002201215E4800F0A7
:100F0C002EFD002202215C4800F029FD0022042164
:100F1C00594800F024FD00220821574800F01FFD1D
:100F2C0000224021544800F01AFDA1E000220221C9
:100F3C00514800F014FD002204214F4800F00FFD31
:100F4C00002220214C4800F00AFD002240214A4892
:100F5C0000F005FD8CE000220121474800F0FFFC69
:100F6C0000220421444800F0FAFC002208214248E7
:100F7C0000F0F5FC002220213F4800F0F0FC00229C
:100F8C0040213D4800F0EBFC72E0002201213A4880
:100F9C0000F0E5FC00220421374800F0E0FC0022C0
:100FAC000821354800F0DBFC00221021324800F00B
:100FBC00D6FC00222021304800F0D1FC0022402138
:100FCC002D4800F0CCFC53E0002201212A4800F00F
:100FDC00C6FC00220221284800F0C1FC002204219A
:100FEC00254800F0BCFC43E000220121224800F01F
:100FFC00B6FC00220221204800F0B1FC00220421A2
:10100C001D4800F0ACFC002208211B4800F0A7FC96
:10101C0000221021184800F0A2FC002220211648C2
:10102C0000F09DFC00224021134800F098FC1FE0CA
:10103C0000220121104800F092FC002202210E48EF
:10104C0000F08DFC002204210B4800F088FC0022EB
:10105C000821094800F083FC00222021064800F0FA
:10106C007EFC00224021044800F079FC00E000BF27
:10107C0000BF0837BD4680BD000C014080B483B072
:10108C0000AF7860084B00221A607B68074A82FB2D
:10109C0003129210DB17D31A054A136000BF0C37EA
:1010AC00BD4680BC704700BF7C000020676666664A
:1010BC008000002080B400AF094B1B68002B0BDDB7
:1010CC00074B1B68013B064A1360054B1B68002B42
:1010DC0002DC044B01221A6000BFBD4680BC704785
:1010EC00800000207C00002080B400AF044B002264
:1010FC001A60044B19221A6000BFBD4680BC7047B1
:10110C00840000208800002080B400AF0E4B1B68C8
:10111C00002B15DD0D4B1B680A3B0C4A13600C4B66
:10112C001B680A3B0A4A1360074B1B68013B064AC3
:10113C001360054B1B68002B02DC064B01221A6066
:10114C0000BFBD4680BC7047880000205C000020BA
:10115C00600000208400002080B400AF084B002207
:10116C001A60084B1B68084A82FB03129210DB17AB
:10117C00D31A064A136000BFBD4680BC704700BF3F
:10118C008C000020640000206766666690000020DA
:10119C0080B400AF0C4B1B68002B10DD0B4B1B6895
:1011AC000A3B0A4A1360084B1B68013B064A136052
:1011BC00054B1B68002B02DC054B01221A6000BF9B
:1011CC00BD4680BC704700BF90000020640000202A
:1011DC008C00002080B582B000AF7860FEF7B0FFC5
:1011EC00FFF768FFFFF790FFFFF7D2FF00BF08374C
:1011FC00BD4680BD80B485B000AF154B9B69144AC9
:10120C0043F001039361124B9B6903F00103BB6034
:10121C00BB680F4BDB690E4A43F08053D3610C4B18
:10122C00DB6903F080537B607B680A4B5B68FB6077
:10123C00FB6823F0E063FB60FB6843F08063FB60BA
:10124C00044AFB68536000BF1437BD4680BC70472E
:10125C00001002400000014080B584B000AF7860FF
:10126C007B681B68B3F1804F13D10C4BDB690B4AC5
:10127C0043F00103D361094BDB6903F00103FB600D
:10128C00FB68002200211C2000F0A1F91C2000F0BA
:10129C00BAF900BF1037BD4680BD00BF0010024038
:1012AC0080B400AFFEE780B400AFFEE780B400AFBF
:1012BC00FEE780B400AFFEE780B400AFFEE780B479
:1012CC0000AF00BFBD4680BC704780B400AF00BF0C
:1012DC00BD4680BC704780B400AF00BFBD4680BC2B
:1012EC00704780B500AF00F07FF800BF80BD0000F4
:1012FC0080B500AF024800F0DBFF00BF80BD00BF2F
:10130C00C400002080B400AF00BFBD4680BC704755
:10131C00FFF7F8FF0B480C490C4A002302E0D458A5
:10132C00C4500433C4188C42F9D3094A094C002325
:10133C0001E013600432A242FBD301F0F9FAFFF78B
:10134C00F7FA70470000002030000020D829000870
:10135C003000002010010020FEE7000080B500AF37
:10136C00084B1B68074A43F010031360032000F07E
:10137C0023F90F2000F008F8FFF73CFF0023184674
:10138C0080BD00BF0020024080B582B000AF786005
:10139C00124B1A68124B1B7819464FF47A73B3FB35
:1013AC00F1F3B2FBF3F3184600F03BF90346002BC4
:1013BC0001D001230EE07B680F2B0AD8002279683C
:1013CC004FF0FF3000F003F9064A7B6813600023EE
:1013DC0000E0012318460837BD4680BD24000020DC
:1013EC002C0000202800002080B400AF054B1B7897
:1013FC001A46054B1B681344034A136000BFBD46D5
:10140C0080BC70472C0000200C01002080B400AF81
:10141C00024B1B681846BD4680BC70470C0100206F
:10142C0080B485B000AF78607B6803F00703FB6085
:10143C000C4BDB68BB60BA684FF6FF031340BB6014
:10144C00FB681A02BB68134343F0BF6343F40033D9
:10145C00BB60044ABB68D36000BF1437BD4680BC78
:10146C00704700BF00ED00E080B400AF044BDB68B8
:10147C001B0A03F007031846BD4680BC704700BF2B
:10148C0000ED00E080B483B000AF0346FB7197F928
:10149C000730002B0BDBFB7903F01F02064997F991
:1014AC0007305B09012000FA02F241F8232000BF4B
:1014BC000C37BD4680BC704700E100E080B483B0BF
:1014CC0000AF03463960FB7197F90730002B0ADB3C
:1014DC003B68DAB20C4997F907301201D2B20B44CF
:1014EC0083F800230AE03B68DAB20849FB7903F081
:1014FC000F03043B1201D2B20B441A7600BF0C3717
:10150C00BD4680BC704700BF00E100E000ED00E08C
:10151C0080B489B000AFF860B9607A60FB6803F002
:10152C000703FB61FB69C3F10703042B28BF0423EA
:10153C00BB61FB690433062B02D9FB69033B00E05A
:10154C0000237B614FF0FF32BB6902FA03F3DA43ED
:10155C00BB681A407B699A404FF0FF317B6901FAF6
:10156C0003F3D9437B680B40134318462437BD461D
:10157C0080BC704780B582B000AF78607B68013B5F
:10158C00B3F1807F01D301230FE00A4A7B68013B52
:10159C0053600F214FF0FF30FFF790FF054B0022F7
:1015AC009A60044B07221A60002318460837BD4680
:1015BC0080BD00BF10E000E080B582B000AF786065
:1015CC007868FFF72DFF00BF0837BD4680BD80B59A
:1015DC0086B000AF0346B9607A60FB7300237B6171
:1015EC00FFF742FF78617A68B9687869FFF790FF76
:1015FC00024697F90F3011461846FFF75FFF00BF00
:10160C001837BD4680BD80B582B000AF0346FB7174
:10161C0097F907301846FFF735FF00BF0837BD466E
:10162C0080BD80B582B000AF78607868FFF7A2FF0C
:10163C00034618460837BD4680BD000080B48BB009
:10164C0000AF7860396000237B6200233B6248E185
:10165C0001227B6A02FA03F3FB613B681B68FA699F
:10166C001340BB61BA69FB699A4240F037813B6811
:10167C005B68A34A93425ED0A14A934275D8A14AB3
:10168C00934258D09F4A93426FD89F4A934252D06C
:10169C009D4A934269D89D4A93424CD09B4A9342AF
:1016AC0063D89B4A934246D0994A93425DD8122BF9
:1016BC002AD8122B59D801A252F823F0431700084C
:1016CC001D1700082F17000871170008771700085E
:1016DC0077170008771700087717000877170008A6
:1016EC007717000877170008771700087717000896
:1016FC007717000877170008771700087717000886
:10170C002517000839170008824A934213D02CE0A1
:10171C003B68DB683B6229E03B68DB6804333B6277
:10172C0024E03B68DB6808333B621FE03B68DB6806
:10173C000C333B621AE03B689B68002B02D10423FC
:10174C003B6213E03B689B68012B05D108233B628D
:10175C007B68FA691A6109E008233B627B68FA69C5
:10176C005A6103E000233B6200E000BFBB69FF2B22
:10177C0001D87B6801E07B6804337B61BB69FF2B7C
:10178C0002D87B6A9B0002E07B6A083B9B003B61B2
:10179C007B691A680F213B6901FA03F3DB431A409A
:1017AC00396A3B6901FA03F31A437B691A603B6897
:1017BC005B6803F08053002B00F09080564B9B69C4
:1017CC00554A43F001039361534B9B6903F00103AA
:1017DC00BB60BB68514A7B6A9B08023352F82330CA
:1017EC00FB607B6A03F003039B000F2202FA03F3F6
:1017FC00DB43FA681340FB607B68494A93420DD087
:10180C007B68484A934207D07B68474A934201D190
:10181C00022304E0032302E0012300E000237A6AA0
:10182C0002F0030292009340FA681343FB603B49B9
:10183C007B6A9B080233FA6841F823203B685B689B
:10184C0003F48013002B06D0384B9A683749BB69D8
:10185C0013438B6006E0354B9A68BB69DB43334915
:10186C0013408B603B685B6803F40013002B06D0BD
:10187C002E4BDA682D49BB691343CB6006E02B4B2A
:10188C00DA68BB69DB4329491340CB603B685B6872
:10189C0003F40033002B06D0244B5A682349BB6950
:1018AC0013434B6006E0214B5A68BB69DB431F496D
:1018BC0013404B603B685B6803F48033002B06D00D
:1018CC001A4B1A681949BB6913430B6006E0174B96
:1018DC001A68BB69DB43154913400B607B6A013303
:1018EC007B623B681A687B6A22FA03F3002B7FF455
:1018FC00AFAE00BF00BF2C37BD4680BC704700BFE9
:10190C0000003210000031100000221000002110E5
:10191C0000001210000011100010024000000140E5
:10192C0000080140000C014000100140000401407F
:10193C0080B485B000AF78600B467B807B689A687A
:10194C007B881340002B02D00123FB7301E00023A2
:10195C00FB73FB7B18461437BD4680BC704780B4C4
:10196C0083B000AF78600B467B8013467B707B782E
:10197C00002B03D07A887B681A6103E07B881A04F9
:10198C007B681A6100BF0C37BD4680BC704780B4C1
:10199C0085B000AF78600B467B807B68DB68FB60B2
:1019AC007A88FB6813401A04FB68D9437B880B4088
:1019BC001A437B681A6100BF1437BD4680BC704760
:1019CC0080B586B000AF78607B68002B01D1012315
:1019DC006CE27B681B6803F00103002B00F087802E
:1019EC00924B5B6803F00C03042B0CD08F4B5B68A1
:1019FC0003F00C03082B12D18C4B5B6803F480337F
:101A0C00B3F5803F0BD1894B1B6803F40033002BDB
:101A1C006CD07B685B68002B68D1012346E27B6845
:101A2C005B68B3F5803F06D1804B1B687F4A43F45B
:101A3C00803313602EE07B685B68002B0CD17B4BF2
:101A4C001B687A4A23F480331360784B1B68774AFF
:101A5C0023F4802313601DE07B685B68B3F5A02F33
:101A6C000CD1724B1B68714A43F4802313606F4B8B
:101A7C001B686E4A43F4803313600BE06B4B1B689E
:101A8C006A4A23F480331360684B1B68674A23F45B
:101A9C00802313607B685B68002B13D0FFF7B6FCC8
:101AAC00386108E0FFF7B2FC02463B69D31A642B9D
:101ABC0001D90323FAE15D4B1B6803F40033002BBF
:101ACC00F0D014E0FFF7A2FC386108E0FFF79EFCB1
:101ADC0002463B69D31A642B01D90323E6E1534B2D
:101AEC001B6803F40033002BF0D100E000BF7B68CF
:101AFC001B6803F00203002B63D04C4B5B6803F0B4
:101B0C000C03002B0BD0494B5B6803F00C03082B28
:101B1C001CD1464B5B6803F48033002B16D1434B2E
:101B2C001B6803F00203002B05D07B681B69012B9B
:101B3C0001D00123BAE13D4B1B6823F0F8027B680E
:101B4C005B69DB00394913430B603AE07B681B6926
:101B5C00002B20D0364B01221A60FFF757FC38615E
:101B6C0008E0FFF753FC02463B69D31A022B01D95C
:101B7C0003239BE12D4B1B6803F00203002BF0D0D9
:101B8C002A4B1B6823F0F8027B685B69DB00274952
:101B9C0013430B6015E0264B00221A60FFF736FC4E
:101BAC00386108E0FFF732FC02463B69D31A022B7E
:101BBC0001D903237AE11D4B1B6803F00203002BB0
:101BCC00F0D17B681B6803F00803002B3AD07B68CC
:101BDC009B69002B19D0174B01221A60FFF716FCDA
:101BEC00386108E0FFF712FC02463B69D31A022B5E
:101BFC0001D903235AE10D4B5B6A03F00203002B5E
:101C0C00F0D0012000F09AFA1CE00A4B00221A6076
:101C1C00FFF7FCFB38610FE0FFF7F8FB02463B696E
:101C2C00D31A022B08D9032340E100BF0010024055
:101C3C0000004242800442429E4B5B6A03F0020366
:101C4C00002BE9D17B681B6803F00403002B00F028
:101C5C00A6800023FB75974BDB6903F08053002BA8
:101C6C000DD1944BDB69934A43F08053D361914B74
:101C7C00DB6903F08053BB60BB680123FB758E4BA3
:101C8C001B6803F48073002B18D18B4B1B688A4A9A
:101C9C0043F480731360FFF7B9FB386108E0FFF77A
:101CAC00B5FB02463B69D31A642B01D90323FDE033
:101CBC00814B1B6803F48073002BF0D07B68DB68CE
:101CCC00012B06D17B4B1B6A7A4A43F0010313624A
:101CDC002DE07B68DB68002B0CD1764B1B6A754AB8
:101CEC0023F001031362734B1B6A724A23F0040343
:101CFC0013621CE07B68DB68052B0CD16D4B1B6AF7
:101D0C006C4A43F0040313626A4B1B6A694A43F042
:101D1C00010313620BE0674B1B6A664A23F0010355
:101D2C001362644B1B6A634A23F0040313627B68DF
:101D3C00DB68002B15D0FFF769FB38610AE0FFF771
:101D4C0065FB02463B69D31A41F28832934201D9B2
:101D5C000323ABE0574B1B6A03F00203002BEED0BE
:101D6C0014E0FFF753FB38610AE0FFF74FFB024624
:101D7C003B69D31A41F28832934201D9032395E08F
:101D8C004C4B1B6A03F00203002BEED1FB7D012BA5
:101D9C0005D1484BDB69474A23F08053D3617B68FC
:101DAC00DB69002B00F08180424B5B6803F00C0375
:101DBC00082B61D07B68DB69022B46D13F4B00229C
:101DCC001A60FFF723FB386108E0FFF71FFB0246A0
:101DDC003B69D31A022B01D9032367E0354B1B68EF
:101DEC0003F00073002BF0D17B681B6AB3F5803FC6
:101DFC0008D1304B5B6823F400327B689B682D491B
:101E0C0013434B602B4B5B6823F474127B68196A89
:101E1C007B685B6A0B43274913434B60274B0122BA
:101E2C001A60FFF7F3FA386108E0FFF7EFFA0246A1
:101E3C003B69D31A022B01D9032337E01D4B1B68D6
:101E4C0003F00073002BF0D02FE01C4B00221A6023
:101E5C00FFF7DCFA386108E0FFF7D8FA02463B6975
:101E6C00D31A022B01D9032320E0124B1B6803F079
:101E7C000073002BF0D118E07B68DB69012B01D1DA
:101E8C00012313E00B4B5B68FB60FB6803F48032AF
:101E9C007B681B6A9A4206D1FB6803F470127B685C
:101EAC005B6A9A4201D0012300E0002318461837E0
:101EBC00BD4680BD001002400070004060004242F0
:101ECC0080B584B000AF786039607B68002B01D19D
:101EDC000123D0E06A4B1B6803F007033A689A426F
:101EEC0010D9674B1B6823F0070265493B68134305
:101EFC000B60634B1B6803F007033A689A4201D0EE
:101F0C000123B8E07B681B6803F00203002B20D090
:101F1C007B681B6803F00403002B05D0594B5B68EE
:101F2C00584A43F4E06353607B681B6803F0080372
:101F3C00002B05D0534B5B68524A43F460535360FB
:101F4C00504B5B6823F0F0027B689B684D49134350
:101F5C004B607B681B6803F00103002B40D07B684F
:101F6C005B68012B07D1474B1B6803F40033002B34
:101F7C0015D101237FE07B685B68022B07D1414BB5
:101F8C001B6803F00073002B09D1012373E03D4B58
:101F9C001B6803F00203002B01D101236BE0394BCA
:101FAC005B6823F003027B685B68364913434B6024
:101FBC00FFF72CFAF8600AE0FFF728FA0246FB68F4
:101FCC00D31A41F28832934201D9032353E02D4BAB
:101FDC005B6803F00C027B685B689B009A42EBD158
:101FEC00274B1B6803F007033A689A4210D2244B24
:101FFC001B6823F0070222493B6813430B60204BFC
:10200C001B6803F007033A689A4201D0012332E0BF
:10201C007B681B6803F00403002B08D0194B5B682A
:10202C0023F4E0627B68DB68164913434B607B68E2
:10203C001B6803F00803002B09D0124B5B6823F4D8
:10204C0060527B681B69DB000E4913434B6000F048
:10205C0021F802460B4B5B681B0903F00F030A497E
:10206C00CB5C22FA03F3094A1360094B1B68184630
:10207C00FFF78AF9002318461037BD4680BD00BF14
:10208C000020024000100240AC290008240000206F
:10209C002800002080B487B000AF0023FB60002331
:1020AC00BB6000237B6100237B6000233B611E4BE4
:1020BC005B68FB60FB6803F00C03042B02D0082B5D
:1020CC0003D027E0194B3B6127E0FB689B0C03F026
:1020DC000F03174AD35C7B60FB6803F48033002B3F
:1020EC0010D0114B5B685B0C03F00103114AD35CFD
:1020FC00BB607B680D4A02FB03F2BB68B2FBF3F3D7
:10210C007B6104E07B680C4A02FB03F37B617B6917
:10211C003B6102E0054B3B6100BF3B6918461C3735
:10212C00BD4680BC704700BF0010024000127A0010
:10213C00BC290008CC29000800093D0080B485B0FA
:10214C0000AF78600A4B1B680A4AA2FB03235B0AA8
:10215C007A6802FB03F3FB6000BFFB685A1EFA604F
:10216C00002BF9D100BF00BF1437BD4680BC7047AF
:10217C0024000020D34D621080B582B000AF78608F
:10218C007B68002B01D1012341E07B6893F83D3043
:10219C00DBB2002B06D17B68002283F83C207868E8
:1021AC00FFF75AF87B68022283F83D207B681A6897
:1021BC007B6804331946104600F056FA7B680122FE
:1021CC0083F846207B68012283F83E207B6801223D
:1021DC0083F83F207B68012283F840207B68012232
:1021EC0083F841207B68012283F842207B6801221E
:1021FC0083F843207B68012283F844207B6801220A
:10220C0083F845207B68012283F83D200023184683
:10221C000837BD4680BD000080B485B000AF786043
:10222C007B6893F83D30DBB2012B01D0012335E004
:10223C007B68022283F83D207B681B68DA687B6828
:10224C001B6842F00102DA607B681B68164A9342F5
:10225C0009D07B681B68B3F1804F04D07B681B6886
:10226C00124A934211D17B681B689B6803F00703E9
:10227C00FB60FB68062B10D07B681B681A687B68B8
:10228C001B6842F001021A6007E07B681B681A6841
:10229C007B681B6842F001021A6000231846143751
:1022AC00BD4680BC704700BF002C014000040040BC
:1022BC0080B584B000AF78607B681B68DB68FB601E
:1022CC007B681B681B69BB60BB6803F00203002BB7
:1022DC0020D0FB6803F00203002B1BD07B681B682B
:1022EC006FF002021A617B6801221A777B681B6807
:1022FC009B6903F00303002B03D0786800F098F976
:10230C0005E0786800F08BF9786800F09AF97B6842
:10231C0000221A77BB6803F00403002B20D0FB6863
:10232C0003F00403002B1BD07B681B686FF00402C6
:10233C001A617B6802221A777B681B689B6903F41D
:10234C004073002B03D0786800F072F905E07868D0
:10235C0000F065F9786800F074F97B6800221A7750
:10236C00BB6803F00803002B20D0FB6803F00803C4
:10237C00002B1BD07B681B686FF008021A617B680E
:10238C0004221A777B681B68DB6903F00303002BBC
:10239C0003D0786800F04CF905E0786800F03FF95C
:1023AC00786800F04EF97B6800221A77BB6803F05E
:1023BC001003002B20D0FB6803F01003002B1BD064
:1023CC007B681B686FF010021A617B6808221A7711
:1023DC007B681B68DB6903F44073002B03D07868BF
:1023EC0000F026F905E0786800F019F9786800F03B
:1023FC0028F97B6800221A77BB6803F00103002BD5
:10240C000CD0FB6803F00103002B07D07B681B6822
:10241C006FF001021A617868FEF7DCFEBB6803F00E
:10242C008003002B0CD0FB6803F08003002B07D03B
:10243C007B681B686FF080021A61786800F06FFA95
:10244C00BB6803F04003002B0CD0FB6803F0400387
:10245C00002B07D07B681B686FF040021A6178680C
:10246C0000F0F8F8BB6803F02003002B0CD0FB68DD
:10247C0003F02003002B07D07B681B686FF0200251
:10248C001A61786800F042FA00BF1037BD4680BD73
:10249C0080B584B000AF786039600023FB737B6833
:1024AC0093F83C30012B01D10223B4E07B6801226C
:1024BC0083F83C207B68022283F83D207B681B68F4
:1024CC009B68BB60BB6823F07703BB60BB6823F4DD
:1024DC007F43BB607B681B68BA689A603B681B686B
:1024EC00B3F5005F3ED0B3F5005F00F28780B3F523
:1024FC00805F00F08680B3F5805F7FD8702B1AD098
:10250C00702B7BD8602B50D0602B77D8502B3CD0C5
:10251C00502B73D8402B58D0402B6FD8302B64D015
:10252C00302B6BD8202B60D0202B67D8002B5CD0A5
:10253C00102B5AD062E07B6818683B6899683B683E
:10254C005A683B68DB6800F06AF97B681B689B681B
:10255C00BB60BB6843F07703BB607B681B68BA68E1
:10256C009A604FE07B6818683B6899683B685A68CA
:10257C003B68DB6800F053F97B681B689A687B68E2
:10258C001B6842F480429A603CE07B6818683B68A8
:10259C0059683B68DB681A4600F0CAF87B681B6810
:1025AC005021184600F021F92CE07B6818683B6834
:1025BC0059683B68DB681A4600F0E8F87B681B68D2
:1025CC006021184600F011F91CE07B6818683B6824
:1025DC0059683B68DB681A4600F0AAF87B681B68F0
:1025EC004021184600F001F90CE07B681A683B6842
:1025FC001B681946104600F0F8F803E00123FB7342
:10260C0000E000BF7B68012283F83D207B6800223C
:10261C0083F83C20FB7B18461037BD4680BD80B448
:10262C0083B000AF786000BF0C37BD4680BC7047EC
:10263C0080B483B000AF786000BF0C37BD4680BC5F
:10264C00704780B483B000AF786000BF0C37BD46D4
:10265C0080BC704780B483B000AF786000BF0C378B
:10266C00BD4680BC7047000080B485B000AF786078
:10267C0039607B681B68FB607B682B4A934207D0F0
:10268C007B68B3F1804F03D07B68284A934208D112
:10269C00FB6823F07003FB603B685B68FA681343CC
:1026AC00FB607B68204A934207D07B68B3F1804F74
:1026BC0003D07B681D4A934208D1FB6823F4407316
:1026CC00FB603B68DB68FA681343FB60FB6823F034
:1026DC0080023B685B691343FB607B68FA681A6095
:1026EC003B689A687B68DA623B681A687B689A6216
:1026FC007B680D4A934203D13B681A697B681A6365
:10270C007B6801225A617B681B6903F00103002B73
:10271C0005D07B681B6923F001027B681A6100BF3E
:10272C001437BD4680BC7047002C014000040040AB
:10273C0080B487B000AFF860B9607A60FB681B6A40
:10274C007B61FB681B6A23F00102FB681A62FB6861
:10275C009B693B613B6923F0F0033B617B681B0188
:10276C003A6913433B617B6923F00A037B617A6905
:10277C00BB6813437B61FB683A699A61FB687A69B1
:10278C001A6200BF1C37BD4680BC704780B487B04E
:10279C0000AFF860B9607A60FB681B6A7B61FB680C
:1027AC001B6A23F01002FB681A62FB689B693B6191
:1027BC003B6923F470433B617B681B033A69134309
:1027CC003B617B6923F0A0037B61BB681B017A69C9
:1027DC0013437B61FB683A699A61FB687A691A62F8
:1027EC0000BF1C37BD4680BC704780B485B000AFBD
:1027FC00786039607B689B68FB60FB6823F0700332
:10280C00FB603A68FB68134343F00703FB607B688B
:10281C00FA689A6000BF1437BD4680BC704780B41C
:10282C0087B000AFF860B9607A603B60FB689B686A
:10283C007B617B6923F47F437B613B681A027B6875
:10284C001A43BB6813437A6913437B61FB687A694B
:10285C009A6000BF1C37BD4680BC704780B485B001
:10286C0000AF786039607B6893F83C30012B01D164
:10287C00022341E07B68012283F83C207B68022222
:10288C0083F83D207B681B685B68FB607B681B687A
:10289C009B68BB60FB6823F07003FB603B681B68A4
:1028AC00FA681343FB607B681B68FA685A607B68A4
:1028BC001B68144A934209D07B681B68B3F1804FA4
:1028CC0004D07B681B68104A93420CD1BB6823F080
:1028DC008003BB603B685B68BA681343BB607B6872
:1028EC001B68BA689A607B68012283F83D207B687C
:1028FC00002283F83C20002318461437BD4680BCC8
:10290C00704700BF002C01400004004080B483B02D
:10291C0000AF786000BF0C37BD4680BC704780B4F8
:10292C0083B000AF786000BF0C37BD4680BC7047E9
:10293C0070B500260C4D0D4C641BA410A64209D199
:10294C0000F022F800260A4D0A4C641BA410A64283
:10295C0005D170BD55F8043B98470136EEE755F8A4
:10296C00043B98470136F2E7D0290008D02900082B
:10297C00D0290008D429000803460244934200D110
:10298C00704703F8011BF9E7F8B500BFF8BC08BCA9
:10299C009E467047F8B500BFF8BC08BC9E46704711
:1029AC0000000000000000000102030406070809F3
:1029BC0002030405060708090A0B0C0D0E0F101074
:0429CC000102000004
:0429D00031010008C9
:0429D4000D010008E9
:1029D80000080140000801400008014008001000FC
:1029E80020000000C8000000C8000000C800000067
:1029F8000100000000127A00100000000100000031
:040000050800131DBF
:00000001FF
